:0B047300010800020B0000020900005D
:10026D0075B208E4F5B112042FE4FFFE120003D2BB
:10027D00AF1202E88E098F0AD3E50A94C4E50994FA
:10028D00095005E4FFFE8047D3E50A94C4E50994BF
:10029D00094011D3E50A94B8E509940B50067F4641
:1002AD007E00802BD3E50A94B8E509940B4011D359
:1002BD00E50A94A0E509940F50067F647E00800F37
:1002CD00D3E50A9494E509941140077FC87E001286
:0B02DD0000037FE87E031204478096B8
:10044700EF1FAC0670011E4C600B007D207C28DC82
:05045700FEDDFC80EB5E
:01045C00227D
:1003E40075A230E4F5D875D9FFF5E9F5F975DA4267
:0A03F40075F2C0F5EAF5FAD2DE2238
:10041700AD07AC06ECC4F854F0C8EDC4540F48540B
:080427003044C0F5F28DFA2209
:10045D00EF1FAA0670011E4A600BE4FDEDC3940860
:05046D0050EE0D80F7C8
:010472002267
:0603FE00D2B27F047E0074
:10040400EF1FAA0670011E4A60087D061DED60F00C
:0204140080FA6C
:0104160022C3
:02039500A907B6
:10039700E4FB1203FEC2B2120400E91392B27F42D9
:1003A7007E00120404E9C313F90BBB08E5D2B27F40
:0603B700047E00020404B4
:1003BD00E4FB1203FEECC313FCC2B21204001203E1
:1003CD00FE30B2034304807F427E001204040BBB57
:0603DD0008E0D2B2AF04FB
:0103E30022F7
:10032E00D20030002C30001B1203FEC2B27F267E9C
:10033E0002120404D2B27F427E00120404A2B292D0
:10034E000080E27FF47E01120404A2B2B392008018
:05035E00D1D2B2A200A3
:010363002277
:1002E80012032E7FCC1203957F4412039512032E1E
:1002F8007FCC1203957FBE1203951203BDA9071286
:1003080003BD53070FEF7F00FEAD01EF2DFFE43E65
:10031800FEAD07FCE4120119E4FBFA79C878401233
:05032800000E1201525D
:01032D0022AD
:08047E00020D0000020F000056
:10042F00438E805389F0758AA0758CF6D28CD2A931
:08043F00D2AFE4F50DF50E2229
:050003008E0F8F10229A
:03000B0002036489
:10036400C0E0C0D0050EE50E7002050DC394C8E5CB
:100374000D94004006750D00750E00D3E50E951022
:10038400E50D950F5004D2B38002C2B3D0D0D0E0B3
:010394003236
:10000E00EC4D6011E8497017ED33EC3304600DE4EC
:10001E00FCFFFEFD22E933E8330470F80201BE1244
:10002E00018958046009E4CC248150062850090245
:10003E0001C82840030201C5C0E0EB4A7044B980F4
:10004E0006D0E0FB0201B4EF4E701CBD8008EBFF42
:10005E00EAFEE9FD80EBE98DF0A4FEE5F00200F783
:10006E00E9CDF9EAFEEBFFEF89F0A4FCE5F0CE89CD
:10007E00F0A42EFFE435F0CD89F0A42DFEE435F08A
:10008E008067EF4E7005BD80D780C3EF8BF0A4ACB8
:10009E00F0EE8BF0A42CFCE435F0F8EF8AF0A42CF3
:1000AE00E5F038FCE433CB8DF0A42CFCE5F03BF806
:1000BE00EE8AF0A42CFCE5F038F8E433CF89F0A4F6
:1000CE002CFCE5F038CF3400CE89F0A42FFFE5F0FC
:1000DE003EFEE433C98DF0A42EFEE5F039CD8AF054
:1000EE00A42FFFE5F03EFEE43DFD33D0E0FB5007CC
:1000FE000BBB000F0201C8EC2CFCEF33FFEE33FEFE
:06010E00ED33FD0201A02B
:1001140075F020800E75F010800575F0087D007E66
:10012400007F003392D530D5031201D3EC33401055
:10013400EF33FFEE33FEED33FDEC33FCD5F0ED226F
:0E014400E5F0247EA2D513CC92E7CDCEFF22AB
:10015200EDD2E7CD33EC3392D524814006E4FFFEA5
:10016200FDFC22FCE4CFCECDCC24E0501174FF8004
:10017200EDC3CC13CCCD13CDCE13CECF13CF0470A1
:07018200F030D5DE0201D3CD
:10018900E9D2E7C933E833F892D5EDD2E7CD33ECBC
:0701990033FC5002B2D52235
:1001A000EC30E7100FBF000C0EBE00080DBD0004C0
:1001B0000BEB6014A2D5EB13FCED92E7FD2274FF6C
:1001C000FCFDFEFF22E480F8A2D574FF13FC7D80C5
:0301D000E480EFD9
:030000000201E119
:0C01E100787FE4F6D8FD7581200202282A
:0E01D300C3E49FFFE49EFEE49DFDE49CFC223D
:1001ED0002026DE493A3F8E493A34003F68001F2B9
:1001FD0008DFF48029E493A3F85407240CC8C33313
:10020D00C4540F4420C8834004F456800146F6DFE1
:10021D00E4800B0102040810204080900473E47EFA
:10022D00019360BCA3FF543F30E509541FFEE493D6
:10023D00A360010ECF54C025E060A840B8E493A39D
:10024D00FAE493A3F8E493A3C8C582C8CAC583CAC8
:10025D00F0A3C8C582C8CAC583CADFE9DEE780BE80
:010486000075
:00000001FF
